:100000000C942A000C9434000C9434000C943400AA
:100010000C9434000C9434000C9434000C94340090
:100020000C9434000C9434000C9434000C94340080
:100030000C9434000C9434000C9434000C94340070
:100040000C9434000C9434000C9434000C94340060
:100050000C94340011241FBECFE5D8E0DEBFCDBF25
:100060000E9448000C949C010C94000080E487B925
:1000700087E886B90895877097B1987F892B87B9EB
:1000800086B1806486B93699FECF84B195B1089562
:100090008FEF87BB0E94360080E00E943B00BC01CE
:1000A00080E090E00E940E0127ED33EA40E050E44A
:1000B0000E9466000E94D8006035710514F081E04E
:1000C00088BB6135710544F718BAE6CF0E947A0003
:1000D0000C9462010E945B0158F00E94540140F0B0
:1000E00029F45F3F29F00C944B0151110C949601B7
:1000F0000C9451010E94730168F39923B1F35523C5
:1001000091F3951B550BBB27AA276217730784072A
:1001100038F09F5F5F4F220F331F441FAA1FA9F3C0
:1001200035D00E2E3AF0E0E832D091505040E695AE
:10013000001CCAF72BD0FE2F29D0660F771F881F0F
:10014000BB1F261737074807AB07B0E809F0BB0B02
:10015000802DBF01FF2793585F4F3AF09E3F510516
:1001600078F00C944B010C9496015F3FE4F3983EB9
:10017000D4F3869577956795B795F7959F5FC9F7FF
:10018000880F911D9695879597F90895E1E0660F80
:10019000771F881FBB1F621773078407BA0720F0F9
:1001A000621B730B840BBA0BEE1F88F7E095089562
:1001B0000E94DF006894B1110C94960108950E948A
:1001C0007B0188F09F5798F0B92F9927B751B0F06D
:1001D000E1F0660F771F881F991F1AF0BA95C9F7CB
:1001E00014C0B13091F00E949501B1E008950C94D3
:1001F0009501672F782F8827B85F39F0B93FCCF386
:10020000869577956795B395D9F73EF49095809547
:10021000709561957F4F8F4F9F4F0895E89409C067
:1002200097FB3EF490958095709561957F4F8F4F29
:100230009F4F9923A9F0F92F96E9BB279395F6953F
:10024000879577956795B795F111F8CFFAF4BB0FBD
:1002500011F460FF1BC06F5F7F4F8F4F9F4F16C021
:10026000882311F096E911C0772321F09EE8872FAB
:10027000762F05C0662371F096E8862F70E060E067
:100280002AF09A95660F771F881FDAF7880F9695E0
:10029000879597F9089597F99F6780E870E060E087
:1002A00008959FEF80EC089500240A94161617060F
:1002B00018060906089500240A9412161306140657
:1002C00005060895092E0394000C11F4882352F0BA
:1002D000BB0F40F4BF2B11F460FF04C06F5F7F4F72
:1002E0008F4F9F4F089557FD9058440F551F59F059
:1002F0005F3F71F04795880F97FB991F61F09F3F13
:1003000079F087950895121613061406551FF2CF3B
:100310004695F1DF08C0161617061806991FF1CF8B
:1003200086957105610508940895E894BB276627B2
:0C0330007727CB0197F90895F894FFCFD0
:00000001FF
